:100000000EC0E1C0D6C0F3C025C024C023C022C0AA
:1000100021C020C01FC01EC01DC01CC01BC0112499
:100020001FBECFE5D2E0DEBFCDBF11E0A0E6B0E05D
:10003000EEEFF4E002C005900D92A432B107D9F7BB
:1000400021E0A4E2B1E001C01D92A632B207E1F7BF
:10005000E5D053C2D5CF6130710541F497B301C0EB
:10006000660F8A95EAF7692B67BB089547B321E0CD
:1000700030E0B90102C0660F771F8A95E2F7CB0125
:100080008095842387BB08956130710541F498B34E
:1000900001C0660F8A95EAF7692B68BB089548B3DB
:1000A00021E030E0B90102C0660F771F8A95E2F7C0
:1000B000CB018095842388BB0895CF93DF9324E000
:1000C000880F991F2A95E1F7EC01C05ADF4F68812C
:1000D000798180E090E0BFDF6A817B8181E090E000
:1000E000BADF6C817D8183E090E0B5DF6E817F8136
:1000F00084E090E0B0DF6885798580E090E0C4DF3F
:100100006A857B8581E090E0BFDF6C857D8583E03B
:1001100090E0BADF6E857F8584E090E0B5DFDF9107
:10012000CF910895B898B998BB98BC9885B780626C
:1001300085BF8BB780628BBF85B7806285BF88958E
:1001400085B78F7D85BF8BB78F7D8BBF85B78F7D43
:1001500085BF0895C09890E0981751F1662341F04B
:100160002FE738E341E0215030404040E1F707C03D
:100170002FEF31EE44E0215030404040E1F700C025
:100180000000C09A662341F02FE738E341E0215098
:1001900030404040E1F707C02FEF31EE44E02150FE
:1001A00030404040E1F700C00000C0989F5FD4CFCE
:1001B00008951F920F920FB60F9211240F900FBE49
:1001C0000F901F9018951F920F920FB60F92112447
:1001D0008F939F9388E790E090932501809324016B
:1001E0009F918F910F900FBE0F901F9018951F92A7
:1001F0000F920FB60F9211248F939F938091240139
:1002000090912501019790932501809324019F915E
:100210008F910F900FBE0F901F901895479A80B73F
:10022000806880BF80B78F6080BF84EF8DBD89B745
:10023000806489BFBA988BB780648BBFAA9A85B750
:10024000836085BF85B7806185BF78946BDFCFEF12
:10025000DFEF0CE010E08091240190912501181649
:1002600019060CF05FDF7AD079D0B8010FD08C1767
:100270009D07D1F3EC0121DF2FEB86E092E02150C6
:1002800080409040E1F700C00000E5CF97FB072ECB
:1002900016F4009406D077FD08D00BD007FC05D0EB
:1002A0003EF4909581959F4F0895709561957F4F8D
:1002B0000895AA1BBB1B51E107C0AA1FBB1FA617AD
:1002C000B70710F0A61BB70B881F991F5A95A9F7FF
:1002D00080959095BC01CD010895A0E0B0E0E2E7E3
:1002E000F1E08AC0EC01688179818A819B81611586
:1002F00071058105910521F464E279ED8BE597E0C4
:100300002DE133EF41E050E038D049015A0127EAAE
:1003100031E440E050E04DD069017A01C501B401FB
:100320002CEE34EF4FEF5FEF44D0022F132F9A01E2
:10033000D701C601800F911FA21FB31FB7FF03C0D3
:100340000197A109B04888839983AA83BB839F77CB
:10035000CDB7DEB7ECE06CC0C0DF089580E291E07D
:10036000BCDF0895A0E0B0E08093200190932101CC
:10037000A0932201B09323010895052E97FB16F454
:1003800000940FD057FD05D068D007FC02D046F48A
:1003900008C050954095309521953F4F4F4F5F4F86
:1003A000089590958095709561957F4F8F4F9F4FE1
:1003B000089568940013E894A0E0B0E0E1EEF1E065
:1003C0001DC0EFEFE7F959016A015E23550FEE08F2
:1003D000FE2C87019B01AC019E23990F660B762FA3
:1003E000CB015DD0CDB7DEB7EAE024C02F923F92BB
:1003F0004F925F926F927F928F929F92AF92BF9235
:10040000CF92DF92EF92FF920F931F93CF93DF93E0
:10041000CDB7DEB7CA1BDB0B0FB6F894DEBF0FBE3D
:10042000CDBF09942A88398848885F846E847D848A
:100430008C849B84AA84B984C884DF80EE80FD808C
:100440000C811B81AA81B981CE0FD11D0FB6F89402
:10045000DEBF0FBECDBFED010895A1E21A2EAA1B8B
:10046000BB1BFD010DC0AA1FBB1FEE1FFF1FA21764
:10047000B307E407F50720F0A21BB30BE40BF50B61
:10048000661F771F881F991F1A9469F760957095EA
:10049000809590959B01AC01BD01CF010895DF933C
:1004A000CF939F92A0E49A2E0024D001E001F001A6
:1004B00016950795F794E794D794C794B794A794A3
:1004C00048F41068A20FB31FC41FD51FE61FF71F03
:1004D000081E191E220F331F441F551F661F771F4A
:1004E000881F991F9A9421F79D01AE01BF01C00199
:0E04F00011249F90CF91DF910895F894FFCFD3
:1004FE0001000100000000000100000000000000EB
:10050E0001000100000000000000010000000000DA
:10051E0000000100010000000000010000000000CA
:10052E0000000100010000000000000001000000BA
:10053E0001000000010000000100000000000000AA
:10054E00010000000100000000000000010000009A
:10055E00010000000000010001000000000000008A
:10056E00010000000000010000000000000001007A
:10057E00000001000000010000000100000000006A
:10058E00000001000000010000000000000001005A
:10059E00000000000100010000000000010000004A
:1005AE00000000000100010000000000000001003A
:0405BE000100000038
:00000001FF
